:020000040800F2
:1000000000500020D53500081534000817340008CA
:10001000193400081B3400081D34000800000000DB
:100020000000000000000000000000001F34000875
:1000300021340008000000002334000825340008A3
:100040001D3600081D3600081D3600081D36000844
:100050001D3600081D3600081D3600081D36000834
:100060001D3600081D3600081D3600081D36000824
:100070001D3600081D3600081D3600081D36000814
:1000800029340008353400081D3600081D360008E4
:100090001D3600081D3600081D3600081D360008F4
:1000A0001D3600081D3600081D3600081D360008E4
:1000B0001D3600081D3600081D36000841340008B2
:1000C0004D3400081D3600081D3600081D36000896
:1000D0001D3600081D3600081D3600081D360008B4
:1000E000593400081D3600081D36000800000000C5
:1000F0000000000000000000000000000000000000
:0C01000000000000000000005FF808F1A3
:10010C0010B5054C237833B9044B13B10448AFF345
:10011C0000800123237010BD0C00002000000000A3
:10012C007836000808B5034B1BB103490348AFF3FD
:10013C00008008BD00000000100000207836000888
:10014C0080F0004002E000BF81F0004142001FBF80
:10015C005FEA410392EA030F7FEA226C7FEA236C89
:10016C006AD04FEA1262D2EB1363C1BFD21841407E
:10017C0048404140B8BF5B42192B88BF704710F014
:10018C00004F40F4000020F07F4018BF404211F0B7
:10019C00004F41F4000121F07F4118BF494292EA1F
:1001AC00030F3FD0A2F1010241FA03FC10EB0C004B
:1001BC00C3F1200301FA03F100F0004302D54942D8
:1001CC0060EB4000B0F5000F13D3B0F1807F06D385
:1001DC0040084FEA310102F10102FE2A51D2B1F17D
:1001EC00004F40EBC25008BF20F0010040EA030072
:1001FC007047490040EB000010F4000FA2F101021F
:10020C00EDD1B0FA80FCACF1080CB2EB0C0200FAA8
:10021C000CF0AABF00EBC25052421843BCBFD040F6
:10022C001843704792F0000F81F4000106BF80F470
:10023C0000000132013BB5E74FEA41037FEA226C33
:10024C0018BF7FEA236C21D092EA030F04D092F0FE
:10025C00000F08BF0846704790EA010F1CBF002032
:10026C00704712F07F4F04D1400028BF40F000408F
:10027C00704712F100723CBF00F50000704700F0AF
:10028C00004343F0FE4040F4000070477FEA2262D6
:10029C0016BF08467FEA23630146420206BF5FEAA7
:1002AC00412390EA010F40F4800070474FF00003A7
:1002BC0004E000BF10F0004348BF40425FEA000C6E
:1002CC0008BF704743F0964301464FF000001CE016
:1002DC0050EA010208BF70474FF000030AE000BF6C
:1002EC0050EA010208BF704711F0004302D54042AA
:1002FC0061EB41015FEA010C02BF8446014600201C
:10030C0043F0B64308BFA3F18053A3F50003BCFA36
:10031C008CF2083AA3EBC25310DB01FA02FC6344E3
:10032C0000FA02FCC2F12002BCF1004F20FA02F2EA
:10033C0043EB020008BF20F00100704702F12002DD
:10034C0001FA02FCC2F1200250EA4C0021FA02F23E
:10035C0043EB020008BF20EADC7070474FF0FF0C43
:10036C001CEAD0521EBF1CEAD15392EA0C0F93EA3E
:10037C000C0F6FD01A4480EA010C400218BF5FEAE0
:10038C0041211ED04FF0006343EA501043EA511153
:10039C00A0FB01310CF00040B1F5000F3EBF49004D
:1003AC0041EAD3715B0040EA010062F17F02FD2A51
:1003BC001DD8B3F1004F40EBC25008BF20F0010034
:1003CC00704790F0000F0CF0004C08BF49024CEA4B
:1003DC00502040EA51207F3AC2BFD2F1FF0340EADD
:1003EC00C250704740F400004FF00003013A5DDC4E
:1003FC0012F1190FDCBF00F000407047C2F100028F
:10040C00410021FA02F1C2F1200200FA02FC5FEA7B
:10041C00310040F1000053EA4C0308BF20EADC70C5
:10042C00704792F0000F00F0004C02BF400010F437
:10043C00000F013AF9D040EA0C0093F0000F01F0E4
:10044C00004C02BF490011F4000F013BF9D041EA06
:10045C000C018FE70CEAD15392EA0C0F18BF93EA08
:10046C000C0F0AD030F0004C18BF31F0004CD8D132
:10047C0080EA010000F00040704790F0000F17BFB9
:10048C0090F0004F084691F0000F91F0004F14D0FF
:10049C0092EA0C0F01D142020FD193EA0C0F03D157
:1004AC004B0218BF084608D180EA010000F000405A
:1004BC0040F0FE4040F40000704740F0FE4040F435
:1004CC00400070474FF0FF0C1CEAD0521EBF1CEAD4
:1004DC00D15392EA0C0F93EA0C0F69D0A2EB0302F2
:1004EC0080EA010C49024FEA402037D04FF080538C
:1004FC0043EA111143EA10130CF000408B4238BF51
:10050C005B0042F17D024FF4000C8B4224BF5B1A5E
:10051C0040EA0C00B3EB510F24BFA3EB510340EAAC
:10052C005C00B3EB910F24BFA3EB910340EA9C005A
:10053C00B3EBD10F24BFA3EBD10340EADC001B01CA
:10054C0018BF5FEA1C1CE0D1FD2A3FF650AF8B426E
:10055C0040EBC25008BF20F0010070470CF0004C7B
:10056C004CEA50207F32C2BFD2F1FF0340EAC250A6
:10057C00704740F400004FF00003013A37E792F067
:10058C00000F00F0004C02BF400010F4000F013AC5
:10059C00F9D040EA0C0093F0000F01F0004C02BFC0
:1005AC00490011F4000F013BF9D041EA0C0195E729
:1005BC000CEAD15392EA0C0F08D142027FF47DAFC2
:1005CC0093EA0C0F7FF470AF084676E793EA0C0FB2
:1005DC0004D14B023FF44CAF08466EE730F0004CB0
:1005EC0018BF31F0004CCAD130F000427FF45CAF40
:1005FC0031F000437FF43CAF5FE700BF4FF0FF3CAE
:10060C0006E000BF4FF0010C02E000BF4FF0010C00
:10061C004DF804CD4FEA40024FEA41037FEA226CC9
:10062C0018BF7FEA236C11D001B052EA530C18BFEB
:10063C0090EA010F58BFB2EB030088BFC81738BF50
:10064C006FEAE17018BF40F0010070477FEA226C3E
:10065C0002D15FEA402C05D17FEA236CE4D15FEA3A
:10066C00412CE1D05DF8040B704700BF844608466E
:10067C006146FFE70FB5FFF7C9FF002848BF10F12F
:10068C00000F0FBD4DF808EDFFF7F4FF0CBF012074
:10069C0000205DF808FB00BF4DF808EDFFF7EAFFFE
:1006AC0034BF012000205DF808FB00BF4DF808EDB9
:1006BC00FFF7E0FF94BF012000205DF808FB00BFAE
:1006CC004DF808EDFFF7D2FF94BF012000205DF834
:1006DC0008FB00BF4DF808EDFFF7C8FF34BF012041
:1006EC0000205DF808FB00BF7BB972B90029BEBFC2
:1006FC0000204FF0004106E008BF00281CBF6FF03F
:10070C0000414FF0FF3000F0ADB9ADF1080C6DE9D0
:10071C0004CE002909DB002B1ADB00F035F8DDF8DC
:10072C0004E0DDE9022304B07047404261EB410173
:10073C00002B1BDB00F028F8DDF804E0DDE90223D8
:10074C0004B0404261EB4101524263EB43037047FA
:10075C00524263EB430300F017F8DDF804E0DDE9E7
:10076C00022304B0404261EB41017047524263EBFB
:10077C00430300F009F8DDF804E0DDE9022304B0DE
:10078C00524263EB430370472DE9F0478C460E460B
:10079C000446089D002B50D18A4217466CD9B2FAF8
:1007AC0082FEBEF1000F0BD0CEF1200C01FA0EF63A
:1007BC0020FA0CFC02FA0EF74CEA060C00FA0EF4C6
:1007CC003A0CBCFBF2F9BBB202FB19CC09FB03FAE5
:1007DC004FEA144848EA0C46B2450AD9F61909F111
:1007EC00FF3180F02581B24540F22281A9F1020946
:1007FC003E44A6EB0A06B6FBF2F002FB106600FBC9
:10080C0003F3A4B244EA0644A34209D9E41900F163
:10081C00FF3280F00B81A34240F2088102383C4445
:10082C000021E41A40EA0940002D62D0002324FA8A
:10083C000EF42C606B60BDE8F0878B4207D9002D5D
:10084C0055D0002185E841000846BDE8F087B3FA91
:10085C0083F1002940F08F80B34202D3824200F230
:10086C00FC80841A66EB03060120B446002D40D0B0
:10087C0085E81010BDE8F08712B90127B7FBF2F735
:10088C00B7FA87FEBEF1000F35D10121F61B4FEAF6
:10089C00174C1FFA87F8B6FBFCF20CFB126608FB30
:1008AC0002F0230C43EA0646B04207D9F61902F1CE
:1008BC00FF3302D2B04200F2D2801A46361AB6FB8F
:1008CC00FCF00CFB106608FB00F8A3B243EA0644EC
:1008DC00A04507D9E41900F1FF3302D2A04500F27C
:1008EC00B9801846A4EB080440EA02409CE729466C
:1008FC002846BDE8F08707FA0EF7CEF1200326FA5A
:10090C0003F24FEA174CB2FBFCF11FFA87F80CFB11
:10091C00112206FA0EF620FA03F301FB08F9334311
:10092C001E0C46EA0246B14500FA0EF409D9F61936
:10093C0001F1FF3280F08C80B14540F289800239A0
:10094C003E44A6EB0906B6FBFCF00CFB106200FB68
:10095C0008F99EB246EA0246B14507D9F61900F1EC
:10096C00FF3371D2B1456FD902383E44A6EB09066C
:10097C0040EA01418FE7C1F1200722FA07F88B40CA
:10098C0048EA030326FA07F44FEA134EB4FBFEF9C8
:10099C001FFA83FC0EFB19448E4020FA07F809FB62
:1009AC000CFA48EA06084FEA184646EA0444A245FF
:1009BC0002FA01F200FA01F608D9E41809F1FF3045
:1009CC0044D2A24542D9A9F102091C44A4EB0A0461
:1009DC00B4FBFEF00EFB104400FB0CFC1FFA88F875
:1009EC0048EA0444A44507D9E41800F1FF3E29D293
:1009FC00A44527D902381C4440EA0940A0FB0289CF
:100A0C00A4EB0C0CCC45C246CE4615D312D055B136
:100A1C00B6EB0A036CEB0E0606FA07F7CB401F4346
:100A2C00CE402F606E600021BDE8F0871046F7E6DF
:100A3C008946DEE64645EAD2B8EB020A69EB030EBC
:100A4C000138E4E77046D7E718468FE78146BDE7E3
:100A5C00114676E702383C4444E7084606E7023A7A
:100A6C003E442BE7704700BF38B50E4B054618784F
:100A7C004FF47A73B3FBF0F30B4A1068B0FBF3F04E
:100A8C0000F09EF8044658B90F2D09D802462946A5
:100A9C004FF0FF3000F054F8044B20461D6038BD79
:100AAC00012038BD000000200800002004000020B8
:100ABC00074A08B51368032043F01003136000F0D5
:100ACC002DF80020FFF7D0FF02F07CFC002008BDC1
:100ADC0000200240034A044B11681B780B4413603E
:100AEC00704700BF2800002000000020014B186850
:100AFC00704700BF2800002038B50446FFF7F6FF0A
:100B0C000546631C1EBF044B1B78E418FFF7EEFF71
:100B1C00401B8442FAD838BD00000020074A00026E
:100B2C00D36800F4E06023F4E0631B041B0C43F077
:100B3C00BF6343F400330343D360704700ED00E020
:100B4C00174B30B5DC68C4F30224C4F10703251D30
:100B5C00042B28BF0423062D4FF0010598BF002459
:100B6C0005FA03F303F1FF3388BF033C1940A1409E
:100B7C0005FA04F4013C2240002842EA01024FEA43
:100B8C000212AFBF00F16040064B00F00F00D2B272
:100B9C00A5BFD2B200F561401A5480F8002330BDD5
:100BAC0000ED00E014ED00E00123420900F01F000D
:100BBC0003FA00F0014B43F82200704700E100E01B
:100BCC000138B0F1807F0AD2F021064B064A5860FA
:100BDC0082F823100020072298601A6070470120C9
:100BEC00704700BF10E000E000ED00E010B530B33E
:100BFC0014220168134B84680B44B3FBF2F39B0083
:100C0C000364114B0A68C363436822F47F52234385
:100C1C00C46822F03002234304692343446923430C
:100C2C0084692343C469234313430B6001220023CB
:100C3C0080F82120836380F82030184610BD0120F5
:100C4C0010BD00BFF8FFFDBF0000024090F821303E
:100C5C0010B5022B03D004238363012010BD03685D
:100C6C001A6822F00E021A601A6822F001021A6049
:100C7C00184A93421FD0143293421ED0143293421E
:100C8C001DD0143293421DD0143293421DD0143215
:100C9C0093420CBF4FF480134FF080730E4A002424
:100CAC005360012380F82130436B80F820407BB1E6
:100CBC009847204610BD0123F0E71023EEE74FF4D0
:100CCC008073EBE74FF48053E8E74FF48033E5E7AC
:100CDC00184610BD080002400000024070B4042504
:100CEC00C66B026C3468036895402542196832D093
:100CFC004D0730D51A6896065EBF1A6822F00402BA
:100D0C001A603E4A934219D01432934218D01432CE
:100D1C00934217D01432934217D01432934217D007
:100D2C00143293420CBF4FF480034FF08063344A6B
:100D3C005360C36A002B5ED070BC18470423F6E7DF
:100D4C004023F4E74FF48063F1E74FF48043EEE780
:100D5C004FF48023EBE702259540254235D08D07D3
:100D6C0033D51A68940606D41A6822F00A021A605F
:100D7C00012280F82120214A934219D01432934247
:100D8C0018D01432934217D01432934217D0143225
:100D9C00934217D0143293420CBF4FF400134FF010
:100DAC000073174A5360002380F82030836AC1E730
:100DBC000223F6E72023F4E74FF40073F1E74FF436
:100DCC000053EEE74FF40033EBE70825954025423E
:100DDC0011D009070FD5196821F00E0119600123F4
:100DEC0003FA02F27260836380F82130002380F8EA
:100DFC002030036B9EE770BC704700BF08000240B8
:100E0C00000002402DE9F74F00221646654BDFF833
:100E1C00A4E1DFF8A4C14FF001080C6808FA06F849
:100E2C0008EA0404A0457FD14D68122D00F0AF8074
:100E3C0000F28880022D00F0A7807CD8002D00F0F5
:100E4C008E80012D00F09E804FF00F09FF2C93BF78
:100E5C00824606F18045083DD0F800B092BFB5003F
:100E6C00D0F804B0AD0009FA05F82BEA080802FA2C
:100E7C0005F588BF00F1040A48EA0505CAF80050D8
:100E8C00D1F804A01AF0805F4ED0474D464FAD69A3
:100E9C0026F0030845F00105BD61BD6908F18048E5
:100EAC0005F00105019508F5803806F0030B019D4E
:100EBC004FEA8B0BD8F8085009FA0BF925EA090907
:100ECC003A4DA84268D005F58065A84266D005F574
:100EDC008065A84264D005F58065A8420CBF032547
:100EEC00042505FA0BF545EA0905C8F808501D68F4
:100EFC001AF4803F14BF2543A5431D605D681AF4A6
:100F0C00003F14BF2543A5435D609D681AF4801F04
:100F1C0014BF2543A5439D60DD681AF4001F14BF60
:100F2C002C4325EA0404DC600136102E7FF473AFE9
:100F3C0003B0BDE8F08F032D22D0112D84D1CA68E7
:100F4C00043281E71A4FBD4209D012D8DFF86C90F9
:100F5C004D4504D009F580394D457FF475AF8A684D
:100F6C00C2B1012A0CBFC0F81080C0F8148008224E
:100F7C006AE77545F3D06545F1D0DFF84490EBE7AF
:100F8C00002261E7CA685FE7CA6808325CE7CA6892
:100F9C000C3259E7042257E70025A2E70125A0E708
:100FAC0002259EE7000401400010024000080140A9
:100FBC000000211000003110000032100000111050
:100FCC00000022100AB1016170470904FBE7704769
:100FDC0008B5044B5969014202D05861FFF7F7FF7D
:100FEC0008BD00BF000401400268536913F480631C
:100FFC000DD06FF48063536104232022036400231B
:10100C00036380F83C3080F83D200120704718467F
:10101C0070472DE9F843044617469946C1F3074833
:10102C008EB22568B8F1010F0CBF6B69AB6936EA5B
:10103C00030314BF0120002008B9BDE8F8836B69D5
:10104C005A0512D52B68202243F400732B606FF4E1
:10105C0080636B610423236400230120236384F8E1
:10106C003C3084F83D20BDE8F8837B1CD9D04FB9C7
:10107C0000232022236384F83C3084F83D20032095
:10108C00BDE8F883FFF732FDA0EB09008742C8D218
:10109C00EEE72DE9F843044690461F46089EC1F33F
:1010AC0007498DB22368B9F1010F0CBF5B699B69CD
:1010BC0035EA03030CBF01230023434502D0002073
:1010CC00BDE8F8837B1CEDD05FB90023202223639D
:1010DC0084F83C3084F83D20032084F83E30BDE891
:1010EC00F883FFF703FD801B8742DBD2EDE770B579
:1010FC0004460D46164623685B691B0601D5002085
:10110C0070BD2046FFF770FFA8B96A1CF3D065B913
:10111C00236C202243F02003236400230320236349
:10112C0084F83C3084F83D2070BDFFF7DFFC801B59
:10113C008542E0D2ECE7012070BD00002DE9FF41B3
:10114C0015460268984613680B9E43F4807313602F
:10115C000F4600960A9B00224FF001110446FFF740
:10116C0098FF68B9236807F0FE071F610A9A334697
:10117C001A492046FFF74DFF30B1236C042B18D0D1
:10118C00032004B0BDE8F081236803905A690A99E2
:10119C0003929B69324603932046039BFFF7A7FFFC
:1011AC0048B1236C042BEBD12268136843F4007311
:1011BC0013600120E5E7B8F1010F236802D1EDB20D
:1011CC001D61DEE72A0A1A610A9932462046FFF7AA
:1011DC008EFF0028E5D12368F1E700BF0200010073
:1011EC002DE9FF419846036816461A680B9D42F498
:1011FC0080621A601A680F4642F480721A604FF0CF
:10120C00011100950A9B00220446FFF742FF80B9AA
:10121C002368FFB207F0FE021A612D492B460A9A89
:10122C002046FFF7F6FE40B1236C042B01D10120C0
:10123C0000E0032004B0BDE8F081236803905A69F4
:10124C000A9903929B692A4603932046039BFFF756
:10125C004EFF40B1236C042BEBD12268136843F48E
:10126C0000731360E3E7B8F1010F236824D1F6B2E1
:10127C001E612A460A992046FFF739FF02460028CC
:10128C00E8D1216820460B6843F480730B6000950D
:10129C000A9B4FF00111FFF7FCFE0028C9D123680F
:1012AC0047F001071F610A9A2B4609492046FFF7B0
:1012BC00B0FE0028B8D1BDE7320A1A610A992A4655
:1012CC002046FFF714FF0028C4D12368CFE700BFE6
:1012DC000200010070B504460D46164620684369AD
:1012EC0013F0400301D0002070BD4269D2060BD52B
:1012FC006FF0100242612022236484F83C30236397
:10130C00012084F83D2070BD5DB9236C032043F0AF
:10131C0020032364202384F83D30002384F83C30E0
:10132C0070BDFFF7E3FB801B8542D7D2EDE770B5AC
:10133C0004460D46164623685B695B0701D5002001
:10134C0070BD2046FFF750FEA8B96A1CF3D065B9F2
:10135C00236C202243F02003236400230320236307
:10136C0084F83C3084F83D2070BDFFF7BFFB801B38
:10137C008542E0D2ECE7012070BD000038B5044690
:10138C0008B9012038BD90F83D3003F0FF021BB9BD
:10139C0080F83C2001F03CFF2423226884F83D3087
:1013AC00136823F00103136001F064F963682F4A9A
:1013BC00934230D82E4A9042E3D92E4A2168B0FB92
:1013CC00F2F24A6001320A62284A0138934232D85A
:1013DC005B00B0FBF3F0431CC3F30B03042B38BFCF
:1013EC000423CB61226AE369002013430B60E2689B
:1013FC00236913438B60A26963691343CB600B6849
:10140C0043F001030B602023206484F83D302063FB
:10141C0084F83E0038BD184A9042B2D9154D4FF4AD
:10142C009672B0FBF5F521686A434D604FF47A75FE
:10143C00B2FBF5F2C6E7A26852B903EB4303B0FB6B
:10144C00F3F0431CC3F30B036BB143F40043C8E745
:10145C0019225343B0FBF3F0431CC3F30B0313B13A
:10146C0043F44043BDE70123BBE700BFA086010066
:10147C007F841E0040420F00FF083D002DE9F3471A
:10148C0004469A46884691460C9EFFF72FFB94F82B
:10149C003D300546202B03D0022002B0BDE8F0877A
:1014AC000090192301223E492046FFF7F2FD002847
:1014BC00F2D194F83C30012BEED0012384F83C306F
:1014CC00236800271A684146D20758BF1A6820467D
:1014DC005CBF42F001021A601A6822F400621A60C2
:1014EC00212384F83D30402384F83E300A9B276446
:1014FC006362BDF82C30019563852A4B0096E3623C
:10150C00638D4A4623855346FFF718FE00282AD0E0
:10151C00236C84F83C70042B07D10120BDE7FFF746
:10152C00E6FD20B1236C042B34D00320B5E7616AAF
:10153C0027684B1C63620B78228D3B61638D501EB8
:10154C00013B9BB263857B6980B25B0720850AD522
:10155C0048B18B1C63624B78023A3B61638D2285E8
:10156C00013B9BB26385238D2A4631462046002BD6
:10157C00D5D1FFF7DCFE0028D4D12268136843F4E0
:10158C0000731360202384F83C0084F83D3084F809
:10159C003E0082E72268136843F400731360BCE7D3
:1015AC00020010000000FFFF2DE9F047044686B052
:1015BC009A460D469146109FFFF798FA94F83D30E5
:1015CC000646202B04D00225284606B0BDE8F0873D
:1015DC0000901923012281492046FFF75AFD00286B
:1015EC00F1D194F83C30012BEDD0012384F83C3040
:1015FC0023684FF000081A682946D20758BF1A68AA
:10160C0020465CBF42F001021A601A6822F40062A4
:10161C001A60222384F83D30402384F83E300E9B20
:10162C00C4F840806362BDF83C30019663856C4B16
:10163C000097E362638D4A4623855346FFF7D0FD3E
:10164C00054630B1236C84F83C80042B3DD1012538
:10165C00BAE7228D236892B902905A6902929A696C
:10166C000292029A1A6842F400721A60202384F8DB
:10167C003D30002384F83E3084F83C30A4E7012A46
:10168C0025D11A6822F480621A6072B6236803901E
:10169C005A6903929A690392039A1A6842F4007287
:1016AC001A6062B6DFF83C81238D002BDED0032B51
:1016BC0077D8012B27D1324639462046FFF70AFE50
:1016CC0000283FD0236C202BC1D103257CE7022AB4
:1016DC001A680ED142F400621A6072B62368049044
:1016EC005A6904929A690492049A1A6822F48062E4
:1016FC00D6E742F480621A6005905A6905929B699C
:10170C000593059BCEE7022B00963B464FF000025B
:10171C004146204624D1FFF7BCFC0028D5D172B637
:10172C0023681A6842F400721A60626A1B69511CC1
:10173C0061621370238D013B2385638D013B9BB24A
:10174C00638562B6636A5A1C6262226812691A70F7
:10175C00238D013B2385638D013B9BB26385A3E7FE
:10176C00FFF797FC02460028AFD121680B6823F4E1
:10177C0080630B6072B6636A2046591C61622168F3
:10178C0009691970238D0096013B2385638D4146B1
:10179C00013B9BB263853B46FFF77BFC0028BFD027
:1017AC0093E7324639462046FFF794FD002889D14D
:1017BC00636A5A1C6262226812691A70238D22684D
:1017CC00013B2385638D013B9BB2638553695B07AA
:1017DC007FF56AAF636A591C6162B7E702001000BB
:1017EC000000FFFF0400010070477047704770470E
:1017FC0070477047704770477047704790F83D309E
:10180C0010B5293B012B0446036839D8002202632A
:10181C00282280F83D201A6822F400621A605A6867
:10182C0012F4006254D05A68606B22F400625A6061
:10183C0090F82130012B394B31D04363FFF706FA76
:10184C0050B12268606B136823F0010313602023EE
:10185C0084F83D30436B984794F83D30282B0ED1DB
:10186C00236C5B070BD52E4B2022E3620023204612
:10187C00236384F83D2084F83E30FFF7BAFF10BD97
:10188C0090F83D20602A05D05A6812055CBF2022D2
:10189C0080F83D200022226384F83E20BBE7A06B39
:1018AC004363FFF7D3F90028D6D022685369580652
:1018BC0004D5636A1269591C61621A702268A06BA4
:1018CC00136823F001031360202384F83D30C1E733
:1018DC0094F83D10602914D1202184F83D10226425
:1018EC005A69510604D5626A1B69511C61621370F6
:1018FC0022682046136823F001031360FFF77DFF75
:10190C00AAE75A69520604D5626A1B69511C6162C6
:10191C0013702046FFF770FF9EE700BF41210008BF
:10192C000000FFFF0368F0B59D6959695A6890F88B
:10193C003E408DB0E4B2102C02D0402C40F05682C8
:10194C0011F0011F66D0970564D590F83E40402CED
:10195C0043D1046D002C3BD1446C04F0FE041C619B
:10196C00944E954C2E400C40002E00F0A281934DCD
:10197C000D40002D00F06981550540F16681002C69
:10198C0040F0638190F83D20058D90F83E10D2B266
:10199C00C9B2C46A002D40F01781212A40F016818B
:1019AC00042C00F06F81082C00F06C8114F5803F42
:1019BC0000F068815A6822F4E0625A6011230363D4
:1019CC0080F83E50202380F83D30FFF70DFF18E1E2
:1019DC00446C44F00104E4B2C1E70469B4F5804FEF
:1019EC0005D190F83D40212C446CF2D1B5E7046D43
:1019FC0034B9446CE41104F0060444F0F004AEE78E
:101A0C00046D012CACD1446CE41104F0060444F0D8
:101A1C00F104A4E76A4C0C401CB1960501D5446C4A
:101A2C00D9E7684C0C40002C9AD0940598D590F8C6
:101A3C003E40C66AD0F830E090F83D70E4B2222FF8
:101A4C0040F0AF80076D47B9402C06D100975C6918
:101A5C0000949C690094009C82E7046D8CB9076922
:101A6C00B7F5404F0DD101945C6901949C690194C8
:101A7C00019C1C6844F480741C60046D0134046582
:101A8C006EE7448DA4B254B902945C6902949C69CB
:101A9C000294029C1C6844F400741C6019E0448D90
:101AAC00A4B2012C42D116F5803F1BD11C6824F442
:101ABC0080641C605C6814F400640CD01C6824F412
:101ACC0080641C60002403945C6903949C690394F7
:101ADC00039C0024D3E704945C6904949C690494EB
:101AEC00049CD7E7042E15D0082E13D0BEF1120F8C
:101AFC0010D0C46A022C1C6814BF24F4806444F413
:101B0C0080641C60002405945C6905949C690594B0
:101B1C00059CDEE71C6824F480641C600024069499
:101B2C005C6906949C690694069CB3E7448DA4B248
:101B3C00022C23D1C46A0026022C1C6814D044F455
:101B4C0000641C6007965C6907949C690794079C69
:101B5C001C6824F480641C605C682705B9D55C683B
:101B6C0044F480545C60B4E744F480641C600896D0
:101B7C005C6908949C690894089CEDE71C6844F423
:101B8C0080641C605C68260542BF5C6844F4805429
:101B9C005C60002409945C6909949C690994099C13
:101BAC0097E700240A945C690A949C690A940A9C3D
:101BBC00D6E600BF04001000040001008000010004
:101BCC000800010002000100212A03D0402918D18D
:101BDC00222A16D1428D92B222B95A6822F480621E
:101BEC005A600EE090F83E20402A28D1026D82B94E
:101BFC00C26C012A826C06D1D2B21A61036D023317
:101C0C0003650DB0F0BDC2F307221A61036D0133F9
:101C1C00F6E7026D012A02D1826CD2B2F5E7026DB1
:101C2C00022AEED190F83D20222A04D11A6842F4FF
:101C3C0080721A60E5E790F83D20212AE1D1426AD2
:101C4C00511C416212781A6199E0002CD9D094058C
:101C5C00D7D5C16A90F83D20212AD2D1428D92B2BB
:101C6C00002AECD104290DD008290BD011F5803FA6
:101C7C0008D0596821F4E06159601123036380F89E
:101C8C003E209FE65A6822F4E0625A601A6842F4D9
:101C9C0000721A6000232022036380F83D2090F824
:101CAC003E2080F83E30402A7FF48FAEFFF7A2FD35
:101CBC00A7E78F4D0D40002D46D0510544D5002C83
:101CCC0042D190F83D20222A9BD1428D92B2032A18
:101CDC0005D9426A1B69511C416213704FE0023AEC
:101CEC00012AC26A0DD8022A1A681DBF22F480622A
:101CFC001A601A6842F4806218BF42F400621A60DB
:101D0C006BE7022A1A6814BF22F4806242F48062E4
:101D1C001A605A6822F4E0625A60426A1B69511CCC
:101D2C0041621370438D013B9BB24385202380F8A5
:101D3C003D300023036390F83E2080F83E30402A6B
:101D4C0051D1FFF758FD5CE7002C3FF45AAF9705D3
:101D5C007FF557AFC26A418D89B20329416A13D10D
:101D6C00042A04D0082A02D012F5803F03D11A6845
:101D7C0022F480621A601B694A1C42620B70438D0C
:101D8C00013B9BB243853CE7448DA4B2022CF2D1BB
:101D9C00042A1FD0082A1DD012F5803F1AD0022A1F
:101DAC001A6814BF22F4806242F480621A605A6886
:101DBC0022F440725A601B694A1C42620B70438DBC
:101DCC00013B9BB24385436A5A1C4262026812690A
:101DDC001A70A7E75A6822F440725A601A6842F4E3
:101DEC0000721A60E7E7FFF700FD0AE7414C0C4070
:101DFC0074B196050CD599699B6981F004011D0697
:101E0C00C1F3800154BF8289028BFFF7F1FCF8E625
:101E1C00394C0C40002C73D0940571D590F83D20B2
:101E2C005968D2B221F4E061596000210B915969D3
:101E3C000B91196841F0010119600B99196821F493
:101E4C0080611960596809050CD590F83D1022295C
:101E5C0003D090F83D102A2929D1816B0968496873
:101E6C0089B24185418D89B2E1B159694F0708D5D5
:101E7C00416A1B694C1C44620B70438D013B9BB245
:101E8C00438501684B695E0608D5436A09695C1C89
:101E9C0044621970438D013B9BB24385036C43F044
:101EAC0004030364036C23B1FFF7A8FCA9E6416BA0
:101EBC00D4E7A2F1280102290AD8104AC2622022D2
:101ECC00036380F83D2080F83E30FFF792FC98E6E3
:101EDC00036B222B02D0222A7FF493AE0023202204
:101EEC00036380F83D2080F83E30FFF780FC88E6E5
:101EFC004000010002000100100001000000FFFF83
:101F0C00394E3A4C2E400C40002E36D0384D0D40F8
:101F1C003DB3550525D524BB90F83D10428DC9B273
:101F2C0092B2002A3FF46DAE426A541C446212789D
:101F3C001A61428D013A92B24285428D92B2002AC8
:101F4C007FF45FAE29297FF45CAE5A6822F480627C
:101F5C005A6021230363282380F83D30FFF746FCA9
:101F6C004FE6002C3FF44DAE94057FF54AAE428D02
:101F7C0092B2002A7FF463AE43E61E4D0D4035B39A
:101F8C00510524D51CBB90F83D20418DD2B289B2AD
:101F9C0000293FF436AE416A1B694C1C44620B703D
:101FAC00438D013B9BB24385438D9BB2002B7FF449
:101FBC0028AE2A2A7FF425AE0268536823F4806386
:101FCC00536022230363282380F83D308DE7002CD7
:101FDC003FF417AE92057FF514AE428D92B2002AF3
:101FEC007FF477AE0DE600BF040010000400010082
:101FFC008000010040000100F8B503684B4A5E699F
:10200C00044616425D680CD0E8050AD5226C42F0F5
:10201C00010222646FF480725A611A6842F4004221
:10202C001A6016F4813F08D0E90506D5226C42F0FF
:10203C00020222646FF400725A6116F4823F36D0A9
:10204C00EA0534D594F83E70618D94F83D20202F2C
:10205C0089B2D2B2206B58D1002956D102F0F701C7
:10206C00212903D0282A50D121284ED194F83D2083
:10207C00E16AD2B2042901D008292CD1282A2AD10C
:10208C002B4A2046E2625A6822F4E0625A606FF4EE
:10209C0080625A611A6822F480621A60002320223E
:1020AC00236384F83D2084F83E30FFF7A2FB16F43E
:1020BC00843F09D0EB0507D56FF40062236C43F025
:1020CC000803236423685A61236C73B32046BDE86C
:1020DC00F840FFF793BB212A23D115492046E16232
:1020EC002263202284F83D20002284F83E205A6886
:1020FC0022F4E0625A606FF480625A611A6822F42A
:10210C0080621A60FFF772FBD1E7226C42F0040286
:10211C00226494F83E20102A02BF1A6842F400721E
:10212C001A606FF480625A61C1E7F8BD00010100CA
:10213C000000FFFF406A08B50368416B1A6822F47F
:10214C0080621A60002242854A63816B4A6390F870
:10215C003D1060294FF0200180F83D1080F83E20A2
:10216C0007D102641A6822F001021A60FFF745FBDE
:10217C0008BD1A6822F001021A60FFF73DFB08BD8A
:10218C0003682DE9F341DB07054610D42B689F0744
:10219C005ED42B68190700F195802B685A0700F163
:1021AC00BF80EA69002A40F02D81002014E0904C99
:1021BC00636803F00C03042B07D0636803F00C0373
:1021CC00082B0CD16368DE0309D523689C03DDD58D
:1021DC006B68002BDAD1012002B0BDE8F0816B688E
:1021EC00B3F5803F10D1236843F480332360FEF7AE
:1021FC007DFC064623689803C8D4FEF777FC801B49
:10220C006428F7D90320E7E79BB9236823F48033CC
:10221C002360236823F480232360FEF767FC0646C3
:10222C0023689903B2D5FEF761FC801B6428F7D9AB
:10223C00E8E7B3F5A02F236803D143F48023236090
:10224C00D1E723F480332360236823F48023CDE784
:10225C00674C636813F00C0F07D0636803F00C0332
:10226C00082B10D16368DA030DD423689B0702D5C1
:10227C002B69012BAFD123686A6923F0F80343EA79
:10228C00C203236085E72A695A4B6AB101221A609E
:10229C00FEF72CFC064623689F07ECD4FEF726FCC1
:1022AC00801B0228F7D9ADE71A60FEF71FFC064623
:1022BC00236898077FF56DAFFEF718FC801B02288A
:1022CC00F6D99FE7AA694A4C4B4BDAB101221A6046
:1022DC00FEF70CFC0646636A9B070DD54FF4FA52C9
:1022EC00464B1B68B3FBF2F3019300BF019B5A1ED4
:1022FC000192002BF9D150E7FEF7F8FB801B022866
:10230C00E9D97FE71A60FEF7F1FB0646636A9F077F
:10231C007FF543AFFEF7EAFB801B0228F6D971E785
:10232C00334CE369D80024D40127E36943F080538C
:10233C00E361E36903F080530093009B304E3368F4
:10234C00D90518D5EB68012B26D1236A43F001037C
:10235C002362FEF7CBFB41F288368046236A9B074B
:10236C003FD5002F3FF41DAFE36923F08053E361A9
:10237C0017E70027E2E7336843F480733360FEF716
:10238C00B5FB80463368DA05DCD4FEF7AFFBA0EB77
:10239C0008006428F6D935E7ABB9236A41F28838CE
:1023AC0023F001032362236A23F004032362FEF764
:1023BC009DFB0646236A9807D3D5FEF797FB801B37
:1023CC004045F7D91EE7052B236A03D143F00403DC
:1023DC002362BAE723F001032362236A23F0040388
:1023EC00B6E7FEF783FBA0EB0800B042B6D909E7CD
:1023FC0000100240000042428004424208000020CB
:10240C0000700040224C636803F00C03082B3FF46F
:10241C00E2AE00231F4E022A33602BD1FEF766FB7F
:10242C000746236899011FD42B6AB3F5803F05D169
:10243C006268A96822F400320A436260696A6268C1
:10244C000B4322F474121343636001233360FEF7D1
:10245C004DFB054623689A013FF5A7AEFEF746FBF8
:10246C00401B0228F6D9CDE6FEF740FBC01B022824
:10247C00D7D9C7E6FEF73AFB054623689B017FF5E3
:10248C0094AEFEF733FB401B0228F6D9BAE600BF28
:10249C00001002406000424230B5194B87B002ACCC
:1024AC0003F11005224618685968083303C2AB4281
:1024BC001446F7D101238DF80430022311498DF80D
:1024CC0005304B6803F00C02082A17D1C3F3834282
:1024DC0006A80244DB0312F8102C0CD54B680A48F2
:1024EC00C3F34043504306AA134413F8143CB0FB07
:1024FC00F3F007B030BD05485043FAE70248F8E75F
:10250C00903600080010024000127A0000093D00CD
:10251C00544A2DE9F0411368054603F007038B423A
:10252C000E462AD329688C0734D4CA0747D44D4A9F
:10253C00136803F007039E42C0F082802A684A4C5D
:10254C0012F0040F40F08780130706D563682A69E0
:10255C0023F4605343EAC2036360FFF79DFF636893
:10256C00424AC3F30313D35CD840414B186000209C
:10257C00FEF77AFA0020BDE8F081136823F0070318
:10258C000B431360136803F007039942CAD0012070
:10259C00BDE8F081344B11F0040F1EBF5A6842F4B1
:1025AC00E0625A60080742BF5A6842F460525A60AF
:1025BC005A68A86822F0F00202435A60B5E76A68CC
:1025CC00294C012A23681CD113F4003FDFD0636827
:1025DC0041F2883823F0030313436360FEF786FA55
:1025EC006B680746012B14D1636803F00C03042BB2
:1025FC009DD0FEF77BFAC01B4045F5D90320BDE802
:10260C00F081022A02D113F0007FDFE713F0020FF2
:10261C00DCE7022B0FD1636803F00C03082B86D088
:10262C00FEF764FAC01B4045F5D9E7E7FEF75EFA02
:10263C00C01B4045E2D8636813F00C0FF6D176E767
:10264C00136823F0070333431360136803F0070385
:10265C009E429CD172E76368E96823F4E0630B4304
:10266C00636071E70020024000100240A0360008B1
:10267C0008000020044B054A5B68C3F30223D35CBB
:10268C00034A1068D840704700100240B03600086A
:10269C0008000020044B054A5B68C3F3C223D35CDB
:1026AC00034A1068D840704700100240B03600084A
:1026BC00080000200223026880F83D30136843F0C4
:1026CC0001031360012380F83D300020704790F81F
:1026DC003C3070B5012B4FF002031CD0012280F866
:1026EC003D30036880F83C209A6822F47F4222F047
:1026FC0077029A600A68402A79D019D8102A00F01B
:10270C0093800AD8002A00F08980012380F83D309C
:10271C00002380F83C30184670BD202A00F08A80D7
:10272C00302AF2D19A6822F0700242F0370236E079
:10273C00702A36D01BD8502A42D0602AE5D11C6AA8
:10274C004D6824F01004CE681C6299691A6A21F451
:10275C00704122F0A00242EA051241EA0631996169
:10276C001A629A6822F0700242F0670217E0B2F522
:10277C00805F11D0B2F5005FC7D18A684D689C6844
:10278C00C9682A4324F47F4442EA012222439A6016
:10279C009A6842F4804202E09A6822F007029A603A
:1027AC00B3E78A684D689C68C9682A4324F47F445F
:1027BC0042EA012222439A609A6842F07702EEE7DD
:1027CC004C68CE68196A1D6A21F00A0125F00105D2
:1027DC001D629A69214322F0F00242EA06129A61C4
:1027EC0019629A6822F0700242F05702D7E74C68DF
:1027FC00CE68196A1D6A21F00A0125F001051D62D7
:10280C009A69214322F0F00242EA06129A61196297
:10281C009A6822F0700242F04702C0E79A6822F0F0
:10282C00700242F00702BAE79A6822F0700242F096
:10283C001702B4E79A6822F0700242F02702AEE762
:10284C001A4A036890420AD0B0F1804F07D0A2F523
:10285C009432904203D002F58062904215D14A68BE
:10286C0023F070031343114A90420AD0B0F1804F09
:10287C0007D0A2F59432904203D002F580629042C8
:10288C0003D1CA6823F4407313434A6923F08003CD
:10289C00134303608B68C3620B688362034B9842DB
:1028AC0004BF0B690363012343617047002C014093
:1028BC0010B50446A0B190F83D3003F0FF021BB9EF
:1028CC0080F83C2000F020FE0223206884F83D3084
:1028DC00211DFFF7B5FF0123002084F83D3010BD0A
:1028EC00012010BD90F83C3010B5012B4FF00203C5
:1028FC0018D080F83D3003680C685A68496822F09B
:10290C0070025A605A6822435A609A6822F0800218
:10291C009A609A680A439A60012380F83D3000233C
:10292C0080F83C30184610BD2DE9F0470568C268A8
:10293C002B69016923F4405313432B618368EA68C4
:10294C000B43416922F4B05222F00C020B431343A7
:10295C00EB606B69826923F4407313436B61404BEA
:10296C0081469D424FF0190446D1FFF793FE04FBBC
:10297C0000F3D9F804604FF06408B600B3FBF6F32B
:10298C00B3FBF8F31E01FFF785FE6043D9F8043062
:10299C009B00B0FBF3F7FFF77DFE6043D9F80430E2
:1029AC009B00B0FBF3F3B3FBF8F308FB13731B01B1
:1029BC003233B3FBF8F303F0F007FFF76BFE604321
:1029CC00D9F804209200B0FBF2FAFFF763FE6043E3
:1029DC00D9F804309B00B0FBF3F3B3FBF8F308FB1E
:1029EC0013A31B013233B3FBF8F303F00F033B4388
:1029FC003344AB60BDE8F087FFF73CFE04FB00F30B
:102A0C00D9F804604FF06408B600B3FBF6F3B3FBDF
:102A1C00F8F31E01FFF72EFE6043D9F804309B003B
:102A2C00B0FBF3F7FFF726FE6043D9F804309B00A8
:102A3C00B0FBF3F3B3FBF8F308FB13731B01323356
:102A4C00B3FBF8F303F0F007FFF714FE6043D9F87B
:102A5C0004209200B0FBF2FAFFF70CFEB7E700BFC0
:102A6C000038014010B5044640B390F8393003F0FB
:102A7C00FF021BB980F8382000F076FD2423226871
:102A8C0084F83930D368204623F40053D360FFF721
:102A9C004BFF236800201A6922F490421A615A698C
:102AAC0022F02A025A61DA6842F40052DA602023DA
:102ABC00E06384F8393084F83A3010BD012010BD41
:102ACC007FB5002306AA02F8013D0A2302930123D5
:102ADC008DE80C0002460548EC210068FEF764FD09
:102AEC009DF8170007B05DF804FB00BF4C000020F8
:102AFC007FB50A230293022302460193084805ABD3
:102B0C000093EC2101230068FEF74EFD9DF81400A4
:102B1C009DF8153043EA002007B05DF804FB00BFB8
:102B2C004C00002008B5FFF7E3FF40BA80B208BDA7
:102B3C007FB50A2306AA02F8011D029301238DE832
:102B4C000C0002460348EC210068FEF797FC07B026
:102B5C005DF804FB4C0000207FB50A23029303238D
:102B6C00024601930A4805AB0093EC21012300684F
:102B7C00FEF71AFD9DF815309DF814001B0243EA70
:102B8C0000439DF81600184307B05DF804FB00BF26
:102B9C004C00002008B5F320FFF792FF00F0010075
:102BAC0008BD890001F01C0141EA401101F0FC0153
:102BBC00F520FFF7BDBF00002DE9F8439DF820403C
:102BCC00634D032C28BF032428606248012C047039
:102BDC0008BF0024052928BF0521052A28BF052286
:102BEC0015465D4A052B15705C4A0F4628BF052318
:102BFC0090465B4913700F70D020FFF761FF60287F
:102C0C00FAD1B621E020FFF793FF1E264FF47A701D
:102C1C00013E00F057FA16F0FF06F7D1FFF7BAFFA6
:102C2C000646002840F088808820FFF77BFF4D4B3C
:102C3C0018808A20FFF776FF4B4B18808C20FFF70B
:102C4C0071FF4A4B18808E20FFF76CFF484B1880A1
:102C5C009020FFF767FF474B18809220FFF762FF29
:102C6C00454B18809420FFF75DFF444B188096204D
:102C7C00FFF758FF424B18809820FFF753FF414B4A
:102C8C0018809A20FFF74EFF3F4B18809C20FFF7CF
:102C9C0049FF3E4B18809E20FFF744FF3C4B1880A9
:102CAC00A120FFF70DFF3B4B1870E120FFF73AFF17
:102CBC00394B1880E320FFF703FF384B1870E420E2
:102CCC00FFF7FEFE8146E520FFF7FAFE344B00F0DD
:102CDC000F0040EA09101880E620FFF7F1FE81464C
:102CEC00E520FFF7EDFE2F4BC0F3071040EA09106B
:102CFC001880E720FFF7E4FE2B4B1870F220FFF74B
:102D0C00DFFE98F8003000F0F8011943F220FFF7CD
:102D1C000FFFF220FFF7D4FEA90041EA471121432F
:102D2C00C9B2F420FFF704FF032C0FD13146BDE8E4
:102D3C00F843F520FFF7FCBE0A264FF47A70013EEB
:102D4C0000F0C0F916F0FF06F7D167E7BDE8F8838D
:102D5C004C00002054000020360000202E000020E3
:102D6C004800002046000020380000202C000020E5
:102D7C003E00002030000020560000205C000020A7
:102D8C003A000020440000203400002042000020C3
:102D9C005A00002032000020400000205800002083
:102DAC00520000203C0000205000002008B5214BB0
:102DBC001B78012B07D0FA20FFF7CEFEB0F5000FE1
:102DCC0018D11D4808BDF420FFF77AFE00F0FC0175
:102DDC0041F00101F420FFF7ABFEF420FFF770FE89
:102DEC0000F003000128E6D1F420FFF769FE830709
:102DFC00FAD1E0E7114B12491A88C2EB202352009A
:102E0C00C2EBE0100F4A5B43B2F900201B134243A4
:102E1C00B1F9000058430C4B801300EBE220186012
:102E2C0000EB800080300012FDF744FA0749FDF7F3
:102E3C0049FB08BD540000200000C6C2460000201B
:102E4C002C00002038000020600000200000C84248
:102E5C002DE9F74F04468DE80600FFF7A7FF8849D8
:102E6C002060FDF70FFC824618B1FF2003B0BDE8CF
:102E7C00F08FF720FFF770FEDFF844B28646DBF8E0
:102E8C000000C117B0F5FA3041F1FF31A0FB008909
:102E9C0000FB01F309EB43097A4BB3F9002002FB69
:102EAC0001F4D31700FB0344A2FB002323441F03AC
:102EBC00754B160347EA1257B3F9002002FB09F4CD
:102ECC00D31708FB0343A2FB08451D44220A6F4C91
:102EDC0042EA056292194FEA252326887B4100328B
:102EEC00A2FB064543F5004306FB03556A10EB179E
:102EFC0052EA030400F0C280654C4FEA2E1EB4F96E
:102F0C000060CEF5801E06FB09F4F71708FB074797
:102F1C00A6FB08455F4E3D44B6F9008008FB01F165
:102F2C004FEAE87900FB0911A8FB008989445A494A
:102F3C004FEA494747EAD8374FEA4846B1F900808B
:102F4C0036196F414FEACE744FEAC80116EB0A06E8
:102F5C004F41A61B40F635444FEAEE79A6FB04011F
:102F6C004FEAC97545EA5E0565EB070704FB0711D7
:102F7C00FDF7BAFB494B4C13B3F90020450B02FB90
:102F8C0004F645EAC145D31705FB0366A2FB0523EE
:102F9C005443334405FB0344A2FB05232344540E42
:102FAC0044EAC31422183E4C4FEA6365B4F900405E
:102FBC0045EB01036143E51700FB0515A4FB00017C
:102FCC002944C40C44EA413412194FEAE1456B41DF
:102FDC00100A40EA0360334BB3F90040009B220116
:102FEC0012184FF4807092FBF0F2FD201A60FFF77C
:102FFC007FFDB0F5004F3FF438AF2B4A2B49B2F9A7
:10300C000020DBF800301205C2EB8032B1F9000071
:10301C00A3F5963303FB1020254900F58040C2131D
:10302C0008785843C01200F50041224890F900007E
:10303C005843801248432049801200F50013B1F91F
:10304C000000584300F5005080135043C3135B43FA
:10305C001A4ADB1112785343A0EB231020EAE070DC
:10306C00B0F1C85FA8BF4FF0C8500013FDF722F9AC
:10307C004FF06A51FDF772F9019B18605046F5E666
:10308C000000C6C230000020560000203E00002088
:10309C00440000203A0000205C0000205A00002070
:1030AC004200002034000020520000203C00002090
:1030BC00580000205000002040000020320000206A
:1030CC00600000200022034B1B685A625A6A82423D
:1030DC00FCD97047540200200E4B07B55A691020DA
:1030EC0042F001025A6100225B69114603F00103B0
:1030FC000193019BFDF724FD1020FDF755FD0022E7
:10310C0011201146FDF71CFD1120FDF74DFD03B0FC
:10311C005DF804FB00100240102230B589B00DEBB5
:10312C000200002100F09AFA254B264D9A69284698
:10313C0042F010029A619A69202102F0100200926A
:10314C00009A9A69002442F020029A619A6902F06E
:10315C0020020192019A9A6942F004029A619A69DA
:10316C0002F004020292029A9A6942F008029A61F1
:10317C009B69002203F008030393039BFDF722FFD6
:10318C004FF400530493104B04A910480593069474
:10319C00FDF738FE2023049301230593022304A991
:1031AC00284607930694FDF72DFE2246214628203B
:1031BC00FDF7C6FC2820FDF7F7FC09B030BD00BFB9
:1031CC0000100240000801400000111000100140E6
:1031DC0008B50C480C4BDFF834E04FF4804280E823
:1031EC000840002302618360C36043618361C36153
:1031FC000362FEF7C3F818B1BDE8084000F0E0B870
:10320C0008BD00BFA800002000540040A0860100AB
:10321C0030B5054687B01022002102A800F01EFA36
:10322C002A682D4B9A4255D12C4C2D48A36902A9E2
:10323C0043F00803A361A36903F008030093009B08
:10324C00C02302931223039303230593FDF7DAFDA6
:10325C00E369802243F40013E361E369214C03F436
:10326C0000130193019B204B204623600023E26056
:10327C006360A36023616361A361E361FDF7B6FC46
:10328C0008B100F09DF81023184AAC636562184C25
:10329C0084E80C00002380222046A360E2602361B6
:1032AC006361A361E361FDF7A1FC08B100F088F84C
:1032BC0000221F2011466C636562FDF741FC1F2044
:1032CC00FDF772FC002220201146FDF739FC20206E
:1032DC00FDF76AFC07B030BD0054004000100240FE
:1032EC00000C0140FC000020800002406C000240F9
:1032FC006400002010B590B02822002106A800F030
:10330C00ADF91422002101A800F0A8F901230A93B9
:10331C00102302240B934FF4601306A80F9306940A
:10332C000D94FEF72DFF0F234FF4806201930023C1
:10333C00214601A80294039304920593FFF7E8F841
:10334C0010B010BD83B5FDF7B3FBFFF7D3FFFFF74C
:10335C00E3FEFFF7C1FEFFF73BFF00F0E9F800F0DA
:10336C009FF81148FFF7A6F90523104C01222360A2
:10337C000323114600930E48FFF71EFC0A2300217D
:10338C0006202360FFF70DFC0A4F0B4E0B4D3A46FF
:10339C0031462846FFF75CFD4FF4FA60FDF7ACFBB5
:1033AC0013232360F3E700BF540200204C010020DC
:1033BC00A80000204401002048010020400100200A
:1033CC00704700000E4B82B09A6942F001029A617C
:1033DC009A6902F001020092009ADA6942F0805276
:1033EC00DA61DB69074A03F080530193019B536850
:1033FC0023F0E06343F00073536002B0704700BFEA
:10340C0000100240000001407047FEE7FEE7FEE7B7
:10341C00FEE7704770477047FDF75CBB0148FDF74E
:10342C005DBC00BF640000200148FDF757BC00BF25
:10343C00FC0000200148FEF775BA00BFA800002070
:10344C000148FEF7D9BD00BFA80000204FF4005082
:10345C00FDF7BEBD0F4B1A6842F001021A605968A5
:10346C000D4A0A405A601A6822F0847222F48032A3
:10347C001A601A6822F480221A605A6822F4FE023A
:10348C005A604FF41F029A604FF00062034B9A602F
:10349C00704700BF001002400000FFF800ED00E094
:1034AC007FB51022002102A800F0D8F83F22144862
:1034BC001449002380E806004FF6FF720093019335
:1034CC008360C26003618361FFF7F2F908B1FFF713
:1034DC0077FF4FF4805302A909480293FFF7F7F8DE
:1034EC0008B1FFF76DFF002369460548009301936F
:1034FC00FFF7F8F908B1FFF763FF07B05DF804FBBD
:10350C0054020020000400400268084B82B09A422A
:10351C000AD103F50333DA6942F00202DA61DB699E
:10352C0003F002030193019B02B0704700040040BA
:10353C0008B54FF4165E0A480A4B0C2280E8084086
:10354C00002342618360C36003618361C361FFF741
:10355C0089FA18B1BDE80840FFF732BF08BD00BFBB
:10356C00940200200044004010B5044686B010229E
:10357C00002102A800F072F82268114B9A421CD16B
:10358C0003F5E633DA6902A942F40032DA61DA694A
:10359C000C4802F400320092009A9A6942F004023C
:1035AC009A619B6903F004030193019B0C23029322
:1035BC00022303930593FDF725FC06B010BD00BF55
:1035CC000044004000080140002103E00B4B5B5815
:1035DC00435004310A480B4B42189A42F6D30A4A1C
:1035EC0002E0002342F8043B084B9A42F9D3FFF760
:1035FC0031FF00F00FF8FFF7A5FE7047C836000842
:10360C00000000200C0000200C000020D402002040
:10361C00FEE7000070B500250C4E0D4CA41BA41049
:10362C00A54209D100F022F800250A4E0A4CA41B31
:10363C00A410A54205D170BD56F825309847013528
:10364C00EEE756F8253098470135F2E7C03600080A
:10365C00C0360008C0360008C436000803460244D1
:10366C00934200D1704703F8011BF9E7F8B500BF8E
:10367C00F8BC08BC9E467047F8B500BFF8BC08BC47
:04368C009E4670479F
:1036900002030405060708090A0B0C0D0E0F101093
:1036A00000000000000000000102030406070809F2
:0836B000000000000102030408
:0836B800DCD0FF7F01000000DF
:0436C00031010008CC
:0436C4000D010008EC
:0C36C800010000001000000000A24A04F5
:04000005080035D5E5
:00000001FF
